{
    "abi": [
        {
            "type": "constructor",
            "inputs": [],
            "stateMutability": "nonpayable"
        },
        {
            "type": "function",
            "name": "DEFAULT_ADMIN_ROLE",
            "inputs": [],
            "outputs": [
                {
                    "name": "",
                    "type": "bytes32",
                    "internalType": "bytes32"
                }
            ],
            "stateMutability": "view"
        },
        {
            "type": "function",
            "name": "POLICY_CUSTODIAN",
            "inputs": [],
            "outputs": [
                {
                    "name": "",
                    "type": "address",
                    "internalType": "address"
                }
            ],
            "stateMutability": "view"
        },
        {
            "type": "function",
            "name": "TargetLocationSimulation",
            "inputs": [
                {
                    "name": "agents",
                    "type": "address[]",
                    "internalType": "address[]"
                },
                {
                    "name": "announceTargets",
                    "type": "uint8[]",
                    "internalType": "enum DataTypes.TargetZone[]"
                }
            ],
            "outputs": [],
            "stateMutability": "nonpayable"
        },
        {
            "type": "function",
            "name": "UPGRADE_INTERFACE_VERSION",
            "inputs": [],
            "outputs": [
                {
                    "name": "",
                    "type": "string",
                    "internalType": "string"
                }
            ],
            "stateMutability": "view"
        },
        {
            "type": "function",
            "name": "checkUpkeep",
            "inputs": [
                {
                    "name": "",
                    "type": "bytes",
                    "internalType": "bytes"
                }
            ],
            "outputs": [
                {
                    "name": "upkeepNeeded",
                    "type": "bool",
                    "internalType": "bool"
                }
            ],
            "stateMutability": "view"
        },
        {
            "type": "function",
            "name": "consensusAutomationExecution",
            "inputs": [],
            "outputs": [
                {
                    "name": "isReached",
                    "type": "bool",
                    "internalType": "bool"
                },
                {
                    "name": "target",
                    "type": "uint256",
                    "internalType": "uint256"
                }
            ],
            "stateMutability": "nonpayable"
        },
        {
            "type": "function",
            "name": "fetchConsensusEpochTimeDuration",
            "inputs": [],
            "outputs": [
                {
                    "name": "",
                    "type": "uint256",
                    "internalType": "uint256"
                }
            ],
            "stateMutability": "view"
        },
        {
            "type": "function",
            "name": "fetchConsensusThreshold",
            "inputs": [],
            "outputs": [
                {
                    "name": "",
                    "type": "uint64",
                    "internalType": "uint64"
                }
            ],
            "stateMutability": "view"
        },
        {
            "type": "function",
            "name": "fetchEpochConsensusZones",
            "inputs": [
                {
                    "name": "epochCounter",
                    "type": "uint128",
                    "internalType": "uint128"
                }
            ],
            "outputs": [
                {
                    "name": "nodes",
                    "type": "address[]",
                    "internalType": "address[]"
                },
                {
                    "name": "zones",
                    "type": "uint8[]",
                    "internalType": "enum DataTypes.TargetZone[]"
                }
            ],
            "stateMutability": "view"
        },
        {
            "type": "function",
            "name": "fetchNodeMangerProxyContractAddress",
            "inputs": [],
            "outputs": [
                {
                    "name": "",
                    "type": "address",
                    "internalType": "address"
                }
            ],
            "stateMutability": "view"
        },
        {
            "type": "function",
            "name": "fetchNumberOfEpoch",
            "inputs": [],
            "outputs": [
                {
                    "name": "",
                    "type": "uint256",
                    "internalType": "uint256"
                }
            ],
            "stateMutability": "view"
        },
        {
            "type": "function",
            "name": "fetchPolicyCustodian",
            "inputs": [],
            "outputs": [
                {
                    "name": "",
                    "type": "address",
                    "internalType": "address"
                }
            ],
            "stateMutability": "view"
        },
        {
            "type": "function",
            "name": "fetchResultOfEachEpoch",
            "inputs": [
                {
                    "name": "epoch",
                    "type": "uint256",
                    "internalType": "uint256"
                }
            ],
            "outputs": [
                {
                    "name": "",
                    "type": "uint256",
                    "internalType": "uint256"
                }
            ],
            "stateMutability": "view"
        },
        {
            "type": "function",
            "name": "fetchStartTime",
            "inputs": [],
            "outputs": [
                {
                    "name": "",
                    "type": "uint256",
                    "internalType": "uint256"
                }
            ],
            "stateMutability": "view"
        },
        {
            "type": "function",
            "name": "fetchTargetLocation",
            "inputs": [
                {
                    "name": "agent",
                    "type": "address",
                    "internalType": "address"
                }
            ],
            "outputs": [
                {
                    "name": "",
                    "type": "tuple",
                    "internalType": "struct DataTypes.TargetLocation",
                    "components": [
                        {
                            "name": "zone",
                            "type": "uint8",
                            "internalType": "enum DataTypes.TargetZone"
                        },
                        {
                            "name": "reportedBy",
                            "type": "address",
                            "internalType": "address"
                        },
                        {
                            "name": "timestamp",
                            "type": "uint256",
                            "internalType": "uint256"
                        },
                        {
                            "name": "isActive",
                            "type": "bool",
                            "internalType": "bool"
                        }
                    ]
                }
            ],
            "stateMutability": "view"
        },
        {
            "type": "function",
            "name": "getRoleAdmin",
            "inputs": [
                {
                    "name": "role",
                    "type": "bytes32",
                    "internalType": "bytes32"
                }
            ],
            "outputs": [
                {
                    "name": "",
                    "type": "bytes32",
                    "internalType": "bytes32"
                }
            ],
            "stateMutability": "view"
        },
        {
            "type": "function",
            "name": "grantRole",
            "inputs": [
                {
                    "name": "role",
                    "type": "bytes32",
                    "internalType": "bytes32"
                },
                {
                    "name": "account",
                    "type": "address",
                    "internalType": "address"
                }
            ],
            "outputs": [],
            "stateMutability": "nonpayable"
        },
        {
            "type": "function",
            "name": "hasNodeParticipated",
            "inputs": [
                {
                    "name": "agent",
                    "type": "address",
                    "internalType": "address"
                }
            ],
            "outputs": [
                {
                    "name": "",
                    "type": "bool",
                    "internalType": "bool"
                }
            ],
            "stateMutability": "view"
        },
        {
            "type": "function",
            "name": "hasRole",
            "inputs": [
                {
                    "name": "role",
                    "type": "bytes32",
                    "internalType": "bytes32"
                },
                {
                    "name": "account",
                    "type": "address",
                    "internalType": "address"
                }
            ],
            "outputs": [
                {
                    "name": "",
                    "type": "bool",
                    "internalType": "bool"
                }
            ],
            "stateMutability": "view"
        },
        {
            "type": "function",
            "name": "initialize",
            "inputs": [
                {
                    "name": "_s_consensusThreshold",
                    "type": "uint8",
                    "internalType": "uint8"
                },
                {
                    "name": "nodeManagerContractAddress",
                    "type": "address",
                    "internalType": "address"
                },
                {
                    "name": "policyCustodian",
                    "type": "address",
                    "internalType": "address"
                }
            ],
            "outputs": [],
            "stateMutability": "nonpayable"
        },
        {
            "type": "function",
            "name": "isEpochNotStarted",
            "inputs": [],
            "outputs": [
                {
                    "name": "",
                    "type": "bool",
                    "internalType": "bool"
                }
            ],
            "stateMutability": "view"
        },
        {
            "type": "function",
            "name": "modifyConsensusThreshold",
            "inputs": [
                {
                    "name": "newThreshold",
                    "type": "uint64",
                    "internalType": "uint64"
                }
            ],
            "outputs": [],
            "stateMutability": "nonpayable"
        },
        {
            "type": "function",
            "name": "modifyEpochDuration",
            "inputs": [
                {
                    "name": "newEpochTimeDurationInMinute",
                    "type": "uint256",
                    "internalType": "uint256"
                }
            ],
            "outputs": [],
            "stateMutability": "nonpayable"
        },
        {
            "type": "function",
            "name": "owner",
            "inputs": [],
            "outputs": [
                {
                    "name": "",
                    "type": "address",
                    "internalType": "address"
                }
            ],
            "stateMutability": "view"
        },
        {
            "type": "function",
            "name": "performUpkeep",
            "inputs": [
                {
                    "name": "",
                    "type": "bytes",
                    "internalType": "bytes"
                }
            ],
            "outputs": [],
            "stateMutability": "nonpayable"
        },
        {
            "type": "function",
            "name": "proxiableUUID",
            "inputs": [],
            "outputs": [
                {
                    "name": "",
                    "type": "bytes32",
                    "internalType": "bytes32"
                }
            ],
            "stateMutability": "view"
        },
        {
            "type": "function",
            "name": "renounceOwnership",
            "inputs": [],
            "outputs": [],
            "stateMutability": "nonpayable"
        },
        {
            "type": "function",
            "name": "renounceRole",
            "inputs": [
                {
                    "name": "role",
                    "type": "bytes32",
                    "internalType": "bytes32"
                },
                {
                    "name": "callerConfirmation",
                    "type": "address",
                    "internalType": "address"
                }
            ],
            "outputs": [],
            "stateMutability": "nonpayable"
        },
        {
            "type": "function",
            "name": "reportTargetLocation",
            "inputs": [
                {
                    "name": "agent",
                    "type": "address",
                    "internalType": "address"
                },
                {
                    "name": "announceTarget",
                    "type": "uint8",
                    "internalType": "enum DataTypes.TargetZone"
                }
            ],
            "outputs": [],
            "stateMutability": "nonpayable"
        },
        {
            "type": "function",
            "name": "revokeRole",
            "inputs": [
                {
                    "name": "role",
                    "type": "bytes32",
                    "internalType": "bytes32"
                },
                {
                    "name": "account",
                    "type": "address",
                    "internalType": "address"
                }
            ],
            "outputs": [],
            "stateMutability": "nonpayable"
        },
        {
            "type": "function",
            "name": "s_lastTimeStamp",
            "inputs": [],
            "outputs": [
                {
                    "name": "",
                    "type": "uint256",
                    "internalType": "uint256"
                }
            ],
            "stateMutability": "view"
        },
        {
            "type": "function",
            "name": "supportsInterface",
            "inputs": [
                {
                    "name": "interfaceId",
                    "type": "bytes4",
                    "internalType": "bytes4"
                }
            ],
            "outputs": [
                {
                    "name": "",
                    "type": "bool",
                    "internalType": "bool"
                }
            ],
            "stateMutability": "view"
        },
        {
            "type": "function",
            "name": "transferOwnership",
            "inputs": [
                {
                    "name": "newOwner",
                    "type": "address",
                    "internalType": "address"
                }
            ],
            "outputs": [],
            "stateMutability": "nonpayable"
        },
        {
            "type": "function",
            "name": "upgradeToAndCall",
            "inputs": [
                {
                    "name": "newImplementation",
                    "type": "address",
                    "internalType": "address"
                },
                {
                    "name": "data",
                    "type": "bytes",
                    "internalType": "bytes"
                }
            ],
            "outputs": [],
            "stateMutability": "payable"
        },
        {
            "type": "event",
            "name": "ConsensusExecuted",
            "inputs": [
                {
                    "name": "isReached",
                    "type": "bool",
                    "indexed": false,
                    "internalType": "bool"
                },
                {
                    "name": "target",
                    "type": "uint256",
                    "indexed": false,
                    "internalType": "uint256"
                },
                {
                    "name": "epochCounter",
                    "type": "uint256",
                    "indexed": false,
                    "internalType": "uint256"
                }
            ],
            "anonymous": false
        },
        {
            "type": "event",
            "name": "ConsensusThresholdModified",
            "inputs": [
                {
                    "name": "previousThreshold",
                    "type": "uint64",
                    "indexed": false,
                    "internalType": "uint64"
                },
                {
                    "name": "newThreshold",
                    "type": "uint64",
                    "indexed": false,
                    "internalType": "uint64"
                }
            ],
            "anonymous": false
        },
        {
            "type": "event",
            "name": "EpochStatusUpdated",
            "inputs": [
                {
                    "name": "startTime",
                    "type": "uint256",
                    "indexed": false,
                    "internalType": "uint256"
                },
                {
                    "name": "epochStatus",
                    "type": "bool",
                    "indexed": false,
                    "internalType": "bool"
                }
            ],
            "anonymous": false
        },
        {
            "type": "event",
            "name": "Initialized",
            "inputs": [
                {
                    "name": "version",
                    "type": "uint64",
                    "indexed": false,
                    "internalType": "uint64"
                }
            ],
            "anonymous": false
        },
        {
            "type": "event",
            "name": "OwnershipTransferred",
            "inputs": [
                {
                    "name": "previousOwner",
                    "type": "address",
                    "indexed": true,
                    "internalType": "address"
                },
                {
                    "name": "newOwner",
                    "type": "address",
                    "indexed": true,
                    "internalType": "address"
                }
            ],
            "anonymous": false
        },
        {
            "type": "event",
            "name": "RoleAdminChanged",
            "inputs": [
                {
                    "name": "role",
                    "type": "bytes32",
                    "indexed": true,
                    "internalType": "bytes32"
                },
                {
                    "name": "previousAdminRole",
                    "type": "bytes32",
                    "indexed": true,
                    "internalType": "bytes32"
                },
                {
                    "name": "newAdminRole",
                    "type": "bytes32",
                    "indexed": true,
                    "internalType": "bytes32"
                }
            ],
            "anonymous": false
        },
        {
            "type": "event",
            "name": "RoleGranted",
            "inputs": [
                {
                    "name": "role",
                    "type": "bytes32",
                    "indexed": true,
                    "internalType": "bytes32"
                },
                {
                    "name": "account",
                    "type": "address",
                    "indexed": true,
                    "internalType": "address"
                },
                {
                    "name": "sender",
                    "type": "address",
                    "indexed": true,
                    "internalType": "address"
                }
            ],
            "anonymous": false
        },
        {
            "type": "event",
            "name": "RoleRevoked",
            "inputs": [
                {
                    "name": "role",
                    "type": "bytes32",
                    "indexed": true,
                    "internalType": "bytes32"
                },
                {
                    "name": "account",
                    "type": "address",
                    "indexed": true,
                    "internalType": "address"
                },
                {
                    "name": "sender",
                    "type": "address",
                    "indexed": true,
                    "internalType": "address"
                }
            ],
            "anonymous": false
        },
        {
            "type": "event",
            "name": "TargetLocationReported",
            "inputs": [
                {
                    "name": "node",
                    "type": "address",
                    "indexed": true,
                    "internalType": "address"
                },
                {
                    "name": "announceTarget",
                    "type": "uint8",
                    "indexed": false,
                    "internalType": "enum DataTypes.TargetZone"
                }
            ],
            "anonymous": false
        },
        {
            "type": "event",
            "name": "TargetLocationSimulated",
            "inputs": [
                {
                    "name": "agent",
                    "type": "address",
                    "indexed": true,
                    "internalType": "address"
                },
                {
                    "name": "announceTarget",
                    "type": "uint8",
                    "indexed": false,
                    "internalType": "enum DataTypes.TargetZone"
                }
            ],
            "anonymous": false
        },
        {
            "type": "event",
            "name": "Upgraded",
            "inputs": [
                {
                    "name": "implementation",
                    "type": "address",
                    "indexed": true,
                    "internalType": "address"
                }
            ],
            "anonymous": false
        },
        {
            "type": "error",
            "name": "ARRAYS_LENGTH_IS_NOT_EQUAL",
            "inputs": []
        },
        {
            "type": "error",
            "name": "AccessControlBadConfirmation",
            "inputs": []
        },
        {
            "type": "error",
            "name": "AccessControlUnauthorizedAccount",
            "inputs": [
                {
                    "name": "account",
                    "type": "address",
                    "internalType": "address"
                },
                {
                    "name": "neededRole",
                    "type": "bytes32",
                    "internalType": "bytes32"
                }
            ]
        },
        {
            "type": "error",
            "name": "AddressEmptyCode",
            "inputs": [
                {
                    "name": "target",
                    "type": "address",
                    "internalType": "address"
                }
            ]
        },
        {
            "type": "error",
            "name": "ConsensusMechanism__NODE_ALREADY_VOTED",
            "inputs": []
        },
        {
            "type": "error",
            "name": "ConsensusMechanism__NODE_NOT_REGISTERED",
            "inputs": []
        },
        {
            "type": "error",
            "name": "ConsensusMechanism__ONLY_POLICY_CUSTODIAN",
            "inputs": []
        },
        {
            "type": "error",
            "name": "ConsensusMechanism__THRESHOLD_EXCEEDS_NODES",
            "inputs": []
        },
        {
            "type": "error",
            "name": "ConsensusMechanism__TIME_IS_NOT_REACHED",
            "inputs": []
        },
        {
            "type": "error",
            "name": "ConsensusMechanism__VOTING_IS_INPROGRESS",
            "inputs": []
        },
        {
            "type": "error",
            "name": "ConsensusMechanism__YOU_ARE_NOT_CORRECT_SENDER",
            "inputs": []
        },
        {
            "type": "error",
            "name": "ERC1967InvalidImplementation",
            "inputs": [
                {
                    "name": "implementation",
                    "type": "address",
                    "internalType": "address"
                }
            ]
        },
        {
            "type": "error",
            "name": "ERC1967NonPayable",
            "inputs": []
        },
        {
            "type": "error",
            "name": "FailedInnerCall",
            "inputs": []
        },
        {
            "type": "error",
            "name": "InvalidInitialization",
            "inputs": []
        },
        {
            "type": "error",
            "name": "NodeManager__CALLER_IS_NOT_AUTHORIZED",
            "inputs": []
        },
        {
            "type": "error",
            "name": "NotInitializing",
            "inputs": []
        },
        {
            "type": "error",
            "name": "OwnableInvalidOwner",
            "inputs": [
                {
                    "name": "owner",
                    "type": "address",
                    "internalType": "address"
                }
            ]
        },
        {
            "type": "error",
            "name": "OwnableUnauthorizedAccount",
            "inputs": [
                {
                    "name": "account",
                    "type": "address",
                    "internalType": "address"
                }
            ]
        },
        {
            "type": "error",
            "name": "UUPSUnauthorizedCallContext",
            "inputs": []
        },
        {
            "type": "error",
            "name": "UUPSUnsupportedProxiableUUID",
            "inputs": [
                {
                    "name": "slot",
                    "type": "bytes32",
                    "internalType": "bytes32"
                }
            ]
        }
    ],
    "bytecode": {
        "object": "0x60a0604052306080523480156200001557600080fd5b506200002062000026565b620000da565b7ff0c57e16840df040f15088dc2f81fe391c3923bec73e23a9662efc9c229c6a00805468010000000000000000900460ff1615620000775760405163f92ee8a960e01b815260040160405180910390fd5b80546001600160401b0390811614620000d75780546001600160401b0319166001600160401b0390811782556040519081527fc7f505b2f371ae2175ee4913f4499e1f2633a7b5936321eed1cdaeb6115181d29060200160405180910390a15b50565b60805161285b6200010460003960008181611387015281816113b00152611577015261285b6000f3fe6080604052600436106101f95760003560e01c8063727ef81d1161010d578063ccbe7f95116100a0578063e79805d31161006f578063e79805d31461061c578063f2fde38b1461063c578063f6c1aadb1461065c578063fae1e2cc1461067c578063fb27faa4146106a857600080fd5b8063ccbe7f95146105a0578063d547741f146105cd578063d6aa9369146105ed578063e3eae0ee1461060257600080fd5b806391d14854116100dc57806391d1485414610500578063a217fddf14610520578063aa9f882e14610535578063ad3cb1cc1461056257600080fd5b8063727ef81d146104675780637674790e146104855780637e764eee146104a55780638da5cb5b146104c357600080fd5b8063441e3632116101905780635acf7a851161015f5780635acf7a85146103bc5780635d243270146103da5780635eafbe49146103fa5780636e04ff0d14610432578063715018a61461045257600080fd5b8063441e36321461033c5780634585e33b146103745780634f1ef2861461039457806352d1902d146103a757600080fd5b80632f2ff15d116101cc5780632f2ff15d146102cf57806334854043146102f157806336568abe146103075780633a182f021461032757600080fd5b806301ffc9a7146101fe578063158eba011461023357806323a9bc0f14610261578063248a9ca3146102a1575b600080fd5b34801561020a57600080fd5b5061021e6102193660046120ce565b6106c8565b60405190151581526020015b60405180910390f35b34801561023f57600080fd5b5061025361024e3660046120f8565b6106ff565b60405161022a929190612159565b34801561026d57600080fd5b5061021e61027c3660046121f9565b6001600160a01b03908116600090815260096020526040902054610100900416151590565b3480156102ad57600080fd5b506102c16102bc366004612216565b61093a565b60405190815260200161022a565b3480156102db57600080fd5b506102ef6102ea36600461222f565b61095c565b005b3480156102fd57600080fd5b506102c160045481565b34801561031357600080fd5b506102ef61032236600461222f565b61097e565b34801561033357600080fd5b506003546102c1565b34801561034857600080fd5b50600154600160a01b90046001600160401b03166040516001600160401b03909116815260200161022a565b34801561038057600080fd5b506102ef61038f36600461225f565b6109b6565b6102ef6103a2366004612316565b6109d5565b3480156103b357600080fd5b506102c16109f0565b3480156103c857600080fd5b506002546001600160801b03166102c1565b3480156103e657600080fd5b506102ef6103f53660046123d1565b610a0d565b34801561040657600080fd5b5060015461041a906001600160a01b031681565b6040516001600160a01b03909116815260200161022a565b34801561043e57600080fd5b5061021e61044d36600461225f565b610b77565b34801561045e57600080fd5b506102ef610b92565b34801561047357600080fd5b506000546001600160a01b031661041a565b34801561049157600080fd5b506102ef6104a0366004612216565b610ba6565b3480156104b157600080fd5b506001546001600160a01b031661041a565b3480156104cf57600080fd5b507f9016d09d72d40fdae2fd8ceac6b6234c7706214fd39c1cd1e609a0528c199300546001600160a01b031661041a565b34801561050c57600080fd5b5061021e61051b36600461222f565b610be2565b34801561052c57600080fd5b506102c1600081565b34801561054157600080fd5b506105556105503660046121f9565b610c1a565b60405161022a9190612406565b34801561056e57600080fd5b50610593604051806040016040528060058152602001640352e302e360dc1b81525081565b60405161022a919061246b565b3480156105ac57600080fd5b506102c16105bb366004612216565b6000908152600b602052604090205490565b3480156105d957600080fd5b506102ef6105e836600461222f565b610cc2565b3480156105f957600080fd5b506008546102c1565b34801561060e57600080fd5b5060065461021e9060ff1681565b34801561062857600080fd5b506102ef61063736600461249e565b610cde565b34801561064857600080fd5b506102ef6106573660046121f9565b610e86565b34801561066857600080fd5b506102ef6106773660046124ef565b610ec9565b34801561068857600080fd5b50610691611009565b60408051921515835260208301919091520161022a565b3480156106b457600080fd5b506102ef6106c33660046125b1565b611156565b60006001600160e01b03198216637965db0b60e01b14806106f957506301ffc9a760e01b6001600160e01b03198316145b92915050565b60608060008060009054906101000a90046001600160a01b03166001600160a01b031663f8c5906f6040518163ffffffff1660e01b8152600401602060405180830381865afa158015610756573d6000803e3d6000fd5b505050506040513d601f19601f8201168201806040525081019061077a9190612672565b9050806001600160401b03811115610794576107946122d0565b6040519080825280602002602001820160405280156107bd578160200160208202803683370190505b509250806001600160401b038111156107d8576107d86122d0565b604051908082528060200260200182016040528015610801578160200160208202803683370190505b50915060005b818110156109335760008054604051636e49fee560e11b8152600481018490526001600160a01b039091169063dc93fdca90602401602060405180830381865afa158015610859573d6000803e3d6000fd5b505050506040513d601f19601f8201168201806040525081019061087d919061268b565b6001600160a01b0381166000908152600a602090815260408083206001600160801b038b168452909152902054865191925060ff169082908790859081106108c7576108c76126a8565b60200260200101906001600160a01b031690816001600160a01b031681525050808584815181106108fa576108fa6126a8565b6020026020010190600481111561091357610913612121565b9081600481111561092657610926612121565b9052505050600101610807565b5050915091565b6000908152600080516020612806833981519152602052604090206001015490565b6109658261093a565b61096e8161124a565b6109788383611254565b50505050565b6001600160a01b03811633146109a75760405163334bd91960e11b815260040160405180910390fd5b6109b18282611300565b505050565b6005546004546109c690426126d4565b11156109d157426004555b5050565b6109dd61137c565b6109e682611421565b6109d182826114af565b60006109fa61156c565b506000805160206127e683398151915290565b81336001600160a01b03821614610a375760405163816625c160e01b815260040160405180910390fd5b82610a61816001600160a01b03908116600090815260096020526040902054610100900416151590565b1515600103610a83576040516368e1953360e01b815260040160405180910390fd5b600054604051638cc0ebb560e01b81526001600160a01b03808716600483015286921690638cc0ebb590602401602060405180830381865afa158015610acd573d6000803e3d6000fd5b505050506040513d601f19601f82011682018060405250810190610af191906126e7565b1515600003610b1357604051632c8c847d60e21b815260040160405180910390fd5b610b1b6115b5565b610b258585611600565b610b2f8585611687565b846001600160a01b03167f32d45b9f092173a5b3739c1f20ec0b22323fc39f48ef5f8fc538d2a0d06a598785604051610b689190612709565b60405180910390a25050505050565b600060055460045442610b8a91906126d4565b119392505050565b610b9a61170b565b610ba46000611766565b565b6001546001600160a01b03163314610bd15760405163335692eb60e11b815260040160405180910390fd5b610bdc81603c612717565b60085550565b6000918252600080516020612806833981519152602090815260408084206001600160a01b0393909316845291905290205460ff1690565b6040805160808101825260008082526020820181905291810182905260608101919091526001600160a01b038216600090815260096020526040908190208151608081019092528054829060ff166004811115610c7957610c79612121565b6004811115610c8a57610c8a612121565b8152815461010090046001600160a01b031660208201526001820154604082015260029091015460ff16151560609091015292915050565b610ccb8261093a565b610cd48161124a565b6109788383611300565b7ff0c57e16840df040f15088dc2f81fe391c3923bec73e23a9662efc9c229c6a008054600160401b810460ff1615906001600160401b0316600081158015610d235750825b90506000826001600160401b03166001148015610d3f5750303b155b905081158015610d4d575080155b15610d6b5760405163f92ee8a960e01b815260040160405180910390fd5b845467ffffffffffffffff191660011785558315610d9557845460ff60401b1916600160401b1785555b610d9e866117d7565b610da66117e8565b610dae6117e8565b7f189ab7a9244df0848122154315af71fe140f3db0fe014031783b0946b8c9d2e360075560068054600168ffffffffffffffffff199091168117909155603c6008558054426004556001600160a01b038881166001600160e01b03199092169190911760ff8b16600160a01b0217909155600080546001600160a01b0319169189169190911790558315610e7c57845460ff60401b19168555604051600181527fc7f505b2f371ae2175ee4913f4499e1f2633a7b5936321eed1cdaeb6115181d29060200160405180910390a15b5050505050505050565b610e8e61170b565b6001600160a01b038116610ebd57604051631e4fbdf760e01b8152600060048201526024015b60405180910390fd5b610ec681611766565b50565b6001546001600160a01b03163314610ef45760405163335692eb60e11b815260040160405180910390fd5b60008060009054906101000a90046001600160a01b03166001600160a01b031663f8c5906f6040518163ffffffff1660e01b8152600401602060405180830381865afa158015610f48573d6000803e3d6000fd5b505050506040513d601f19601f82011682018060405250810190610f6c9190612672565b905080826001600160401b03161115610f9857604051633ace367d60e01b815260040160405180910390fd5b600180546001600160401b03848116600160a01b81810267ffffffffffffffff60a01b1985161790945560408051949093049091168084526020840191909152917f8ebfc0113959bd18ed9684e51089733f68244f95c39c2c99bf9e8ba6a2f1e354910160405180910390a1505050565b6000804260085460035461101d919061272e565b1061103b5760405163022b38a360e11b815260040160405180910390fd5b60065460ff161561105f57604051630ca6762760e31b815260040160405180910390fd5b60006110696117f0565b905080156110cf57600280546001600160801b039081166000908152600b602052604081208490558254600196508693926110a691859116612741565b92506101000a8154816001600160801b0302191690836001600160801b031602179055506110ec565b806000036110ec576002546110ec906001600160801b0316611aef565b6110f4611c23565b6006805460ff19166001179055600254604080518515158152602081018590526001600160801b03909216908201527fd3ce1f641f019f46b7da8803e87a3403a275687a8f73cf993b452bd5549225cc9060600160405180910390a191929050565b805182511461117857604051633785941760e11b815260040160405180910390fd5b60005b825181101561123b576111c0838281518110611199576111996126a8565b60200260200101518383815181106111b3576111b36126a8565b6020026020010151611c2f565b8281815181106111d2576111d26126a8565b60200260200101516001600160a01b03167f686a72220a0add8b376820419974e7df21d2f51e62f88f62b686220b9bddccba838381518110611216576112166126a8565b602002602001015160405161122b9190612709565b60405180910390a260010161117b565b50506006805460ff1916905550565b610ec68133611d32565b600060008051602061280683398151915261126f8484610be2565b6112ef576000848152602082815260408083206001600160a01b03871684529091529020805460ff191660011790556112a53390565b6001600160a01b0316836001600160a01b0316857f2f8788117e7eff1d82e926ec794901d17c78024a50270940304540a733656f0d60405160405180910390a460019150506106f9565b60009150506106f9565b5092915050565b600060008051602061280683398151915261131b8484610be2565b156112ef576000848152602082815260408083206001600160a01b0387168085529252808320805460ff1916905551339287917ff6391f5c32d9c69d2a47ea670b442974b53935d1edc7fd64eb21e047a839171b9190a460019150506106f9565b306001600160a01b037f000000000000000000000000000000000000000000000000000000000000000016148061140357507f00000000000000000000000000000000000000000000000000000000000000006001600160a01b03166113f76000805160206127e6833981519152546001600160a01b031690565b6001600160a01b031614155b15610ba45760405163703e46dd60e11b815260040160405180910390fd5b60075461142d8161124a565b6001546001600160a01b0316331461145857604051637a2ca08760e01b815260040160405180910390fd5b6001600160a01b0382163b6109d15760405162461bcd60e51b815260206004820181905260248201527f696d706c656d656e746174696f6e206973206e6f74206120636f6e74726163746044820152606401610eb4565b816001600160a01b03166352d1902d6040518163ffffffff1660e01b8152600401602060405180830381865afa925050508015611509575060408051601f3d908101601f1916820190925261150691810190612672565b60015b61153157604051634c9c8ce360e01b81526001600160a01b0383166004820152602401610eb4565b6000805160206127e6833981519152811461156257604051632a87526960e21b815260048101829052602401610eb4565b6109b18383611d6b565b306001600160a01b037f00000000000000000000000000000000000000000000000000000000000000001614610ba45760405163703e46dd60e11b815260040160405180910390fd5b4260038190556006805460ff1916905560408051918252600060208301527fa1bb2a8d2aa216afce7f393f098eba8b20ce9b6893998657cd31aeb646249050910160405180910390a1565b6001600160a01b0382166000908152600960205260409020805482919060ff1916600183600481111561163557611635612121565b0217905550506001600160a01b031660008181526009602052604090208054610100600160a81b031916610100909202919091178155426001808301919091556002909101805460ff19169091179055565b60405180604001604052808260048111156116a4576116a4612121565b8152426020918201526001600160a01b0384166000908152600a825260408082206002546001600160801b031683529092522081518154829060ff191660018360048111156116f5576116f5612121565b0217905550602082015181600101559050505050565b3361173d7f9016d09d72d40fdae2fd8ceac6b6234c7706214fd39c1cd1e609a0528c199300546001600160a01b031690565b6001600160a01b031614610ba45760405163118cdaa760e01b8152336004820152602401610eb4565b7f9016d09d72d40fdae2fd8ceac6b6234c7706214fd39c1cd1e609a0528c19930080546001600160a01b031981166001600160a01b03848116918217845560405192169182907f8be0079c531659141344cd1fd0a4f28419497f9722a3daafe3b4186f6b6457e090600090a3505050565b6117df611dc1565b610ec681611e0a565b610ba4611dc1565b6000806117ff6004600161272e565b6001600160401b03811115611816576118166122d0565b60405190808252806020026020018201604052801561183f578160200160208202803683370190505b50905060008060009054906101000a90046001600160a01b03166001600160a01b031663f8c5906f6040518163ffffffff1660e01b8152600401602060405180830381865afa158015611896573d6000803e3d6000fd5b505050506040513d601f19601f820116820180604052508101906118ba9190612672565b905060005b81811015611a345760008054604051636e49fee560e11b8152600481018490526001600160a01b039091169063dc93fdca90602401602060405180830381865afa158015611911573d6000803e3d6000fd5b505050506040513d601f19601f82011682018060405250810190611935919061268b565b6001600160a01b03811660009081526009602052604090205490915060ff16600181600481111561196857611968612121565b0361199e57600185815b81518110611982576119826126a8565b60200260200101818151611996919061272e565b905250611a2a565b60028160048111156119b2576119b2612121565b036119c1576001856002611972565b60038160048111156119d5576119d5612121565b036119e4576001856003611972565b60048160048111156119f8576119f8612121565b03611a2a57600185600481518110611a1257611a126126a8565b60200260200101818151611a26919061272e565b9052505b50506001016118bf565b5060008073__$c1c00e273f14be79c18c4f9cb0aa87f229$__63416be47b856040518263ffffffff1660e01b8152600401611a6f9190612761565b6040805180830381865af4158015611a8b573d6000803e3d6000fd5b505050506040513d601f19601f82011682018060405250810190611aaf91906127a5565b6001549193509150600160a01b90046001600160401b0316811015611ae45760065461010090046001600160401b0316611ae6565b815b94505050505090565b60005b60008054906101000a90046001600160a01b03166001600160a01b031663f8c5906f6040518163ffffffff1660e01b8152600401602060405180830381865afa158015611b43573d6000803e3d6000fd5b505050506040513d601f19601f82011682018060405250810190611b679190612672565b8110156109d15760008054604051636e49fee560e11b8152600481018490526001600160a01b039091169063dc93fdca90602401602060405180830381865afa158015611bb8573d6000803e3d6000fd5b505050506040513d601f19601f82011682018060405250810190611bdc919061268b565b6001600160a01b03166000908152600a602090815260408083206001600160801b03871684529091528120805460ff19168155600190810191909155919091019050611af2565b42600355610ba4611e12565b81611c59816001600160a01b03908116600090815260096020526040902054610100900416151590565b1515600103611c7b576040516368e1953360e01b815260040160405180910390fd5b600054604051638cc0ebb560e01b81526001600160a01b03808616600483015285921690638cc0ebb590602401602060405180830381865afa158015611cc5573d6000803e3d6000fd5b505050506040513d601f19601f82011682018060405250810190611ce991906126e7565b1515600003611d0b57604051632c8c847d60e21b815260040160405180910390fd5b60065460ff1615611d1e57611d1e6115b5565b611d288484611600565b6109788484611687565b611d3c8282610be2565b6109d15760405163e2517d3f60e01b81526001600160a01b038216600482015260248101839052604401610eb4565b611d7482611ea2565b6040516001600160a01b038316907fbc7cd75a20ee27fd9adebab32041f755214dbc6bffa90cc0225b39da2e5c2d3b90600090a2805115611db9576109b18282611f07565b6109d1611f7d565b7ff0c57e16840df040f15088dc2f81fe391c3923bec73e23a9662efc9c229c6a0054600160401b900460ff16610ba457604051631afcd79f60e31b815260040160405180910390fd5b610e8e611dc1565b60005b60008054906101000a90046001600160a01b03166001600160a01b031663f8c5906f6040518163ffffffff1660e01b8152600401602060405180830381865afa158015611e66573d6000803e3d6000fd5b505050506040513d601f19601f82011682018060405250810190611e8a9190612672565b811015610ec657611e9a81611f9c565b600101611e15565b806001600160a01b03163b600003611ed857604051634c9c8ce360e01b81526001600160a01b0382166004820152602401610eb4565b6000805160206127e683398151915280546001600160a01b0319166001600160a01b0392909216919091179055565b6060600080846001600160a01b031684604051611f2491906127c9565b600060405180830381855af49150503d8060008114611f5f576040519150601f19603f3d011682016040523d82523d6000602084013e611f64565b606091505b5091509150611f74858383612046565b95945050505050565b3415610ba45760405163b398979f60e01b815260040160405180910390fd5b60008054604051636e49fee560e11b8152600481018490526001600160a01b039091169063dc93fdca90602401602060405180830381865afa158015611fe6573d6000803e3d6000fd5b505050506040513d601f19601f8201168201806040525081019061200a919061268b565b6001600160a01b0316600090815260096020526040812080546001600160a81b03191681556001810191909155600201805460ff191690555050565b60608261205b57612056826120a5565b61209e565b815115801561207257506001600160a01b0384163b155b1561209b57604051639996b31560e01b81526001600160a01b0385166004820152602401610eb4565b50805b9392505050565b8051156120b55780518082602001fd5b604051630a12f52160e11b815260040160405180910390fd5b6000602082840312156120e057600080fd5b81356001600160e01b03198116811461209e57600080fd5b60006020828403121561210a57600080fd5b81356001600160801b038116811461209e57600080fd5b634e487b7160e01b600052602160045260246000fd5b6005811061215557634e487b7160e01b600052602160045260246000fd5b9052565b604080825283519082018190526000906020906060840190828701845b8281101561219b5781516001600160a01b031684529284019290840190600101612176565b5050508381038285015284518082528583019183019060005b818110156121d7576121c7838551612137565b92840192918401916001016121b4565b5090979650505050505050565b6001600160a01b0381168114610ec657600080fd5b60006020828403121561220b57600080fd5b813561209e816121e4565b60006020828403121561222857600080fd5b5035919050565b6000806040838503121561224257600080fd5b823591506020830135612254816121e4565b809150509250929050565b6000806020838503121561227257600080fd5b82356001600160401b038082111561228957600080fd5b818501915085601f83011261229d57600080fd5b8135818111156122ac57600080fd5b8660208285010111156122be57600080fd5b60209290920196919550909350505050565b634e487b7160e01b600052604160045260246000fd5b604051601f8201601f191681016001600160401b038111828210171561230e5761230e6122d0565b604052919050565b6000806040838503121561232957600080fd5b8235612334816121e4565b91506020838101356001600160401b038082111561235157600080fd5b818601915086601f83011261236557600080fd5b813581811115612377576123776122d0565b612389601f8201601f191685016122e6565b9150808252878482850101111561239f57600080fd5b80848401858401376000848284010152508093505050509250929050565b8035600581106123cc57600080fd5b919050565b600080604083850312156123e457600080fd5b82356123ef816121e4565b91506123fd602084016123bd565b90509250929050565b6000608082019050612419828451612137565b60018060a01b0360208401511660208301526040830151604083015260608301511515606083015292915050565b60005b8381101561246257818101518382015260200161244a565b50506000910152565b602081526000825180602084015261248a816040850160208701612447565b601f01601f19169190910160400192915050565b6000806000606084860312156124b357600080fd5b833560ff811681146124c457600080fd5b925060208401356124d4816121e4565b915060408401356124e4816121e4565b809150509250925092565b60006020828403121561250157600080fd5b81356001600160401b038116811461209e57600080fd5b60006001600160401b03821115612531576125316122d0565b5060051b60200190565b600082601f83011261254c57600080fd5b8135602061256161255c83612518565b6122e6565b8083825260208201915060208460051b87010193508684111561258357600080fd5b602086015b848110156125a657612599816123bd565b8352918301918301612588565b509695505050505050565b600080604083850312156125c457600080fd5b82356001600160401b03808211156125db57600080fd5b818501915085601f8301126125ef57600080fd5b813560206125ff61255c83612518565b82815260059290921b8401810191818101908984111561261e57600080fd5b948201945b83861015612645578535612636816121e4565b82529482019490820190612623565b9650508601359250508082111561265b57600080fd5b506126688582860161253b565b9150509250929050565b60006020828403121561268457600080fd5b5051919050565b60006020828403121561269d57600080fd5b815161209e816121e4565b634e487b7160e01b600052603260045260246000fd5b634e487b7160e01b600052601160045260246000fd5b818103818111156106f9576106f96126be565b6000602082840312156126f957600080fd5b8151801515811461209e57600080fd5b602081016106f98284612137565b80820281158282048414176106f9576106f96126be565b808201808211156106f9576106f96126be565b6001600160801b038181168382160190808211156112f9576112f96126be565b6020808252825182820181905260009190848201906040850190845b818110156127995783518352928401929184019160010161277d565b50909695505050505050565b600080604083850312156127b857600080fd5b505080516020909101519092909150565b600082516127db818460208701612447565b919091019291505056fe360894a13ba1a3210667c828492db98dca3e2076cc3735a920a3ca505d382bbc02dd7bc7dec4dceedda775e58dd541e08a116c6c53815c0bd028192f7b626800a26469706673582212207ae36d077d41041204c290783466ad8d40bd913b8663cd5f950521f99f17a22564736f6c63430008180033",
        "linkReferences": {
            "contracts/ethereum/Helper/Utils.sol": {
                "Utils": [
                    {
                        "start": 6974,
                        "length": 20
                    }
                ]
            }
        }
    },
    "methodIdentifiers": {
        "DEFAULT_ADMIN_ROLE()": "a217fddf",
        "POLICY_CUSTODIAN()": "5eafbe49",
        "TargetLocationSimulation(address[],uint8[])": "fb27faa4",
        "UPGRADE_INTERFACE_VERSION()": "ad3cb1cc",
        "checkUpkeep(bytes)": "6e04ff0d",
        "consensusAutomationExecution()": "fae1e2cc",
        "fetchConsensusEpochTimeDuration()": "d6aa9369",
        "fetchConsensusThreshold()": "441e3632",
        "fetchEpochConsensusZones(uint128)": "158eba01",
        "fetchNodeMangerProxyContractAddress()": "727ef81d",
        "fetchNumberOfEpoch()": "5acf7a85",
        "fetchPolicyCustodian()": "7e764eee",
        "fetchResultOfEachEpoch(uint256)": "ccbe7f95",
        "fetchStartTime()": "3a182f02",
        "fetchTargetLocation(address)": "aa9f882e",
        "getRoleAdmin(bytes32)": "248a9ca3",
        "grantRole(bytes32,address)": "2f2ff15d",
        "hasNodeParticipated(address)": "23a9bc0f",
        "hasRole(bytes32,address)": "91d14854",
        "initialize(uint8,address,address)": "e79805d3",
        "isEpochNotStarted()": "e3eae0ee",
        "modifyConsensusThreshold(uint64)": "f6c1aadb",
        "modifyEpochDuration(uint256)": "7674790e",
        "owner()": "8da5cb5b",
        "performUpkeep(bytes)": "4585e33b",
        "proxiableUUID()": "52d1902d",
        "renounceOwnership()": "715018a6",
        "renounceRole(bytes32,address)": "36568abe",
        "reportTargetLocation(address,uint8)": "5d243270",
        "revokeRole(bytes32,address)": "d547741f",
        "s_lastTimeStamp()": "34854043",
        "supportsInterface(bytes4)": "01ffc9a7",
        "transferOwnership(address)": "f2fde38b",
        "upgradeToAndCall(address,bytes)": "4f1ef286"
    },
    "id": 3
}