{"abi":[{"type":"constructor","inputs":[],"stateMutability":"nonpayable"},{"type":"function","name":"DEFAULT_ADMIN_ROLE","inputs":[],"outputs":[{"name":"","type":"bytes32","internalType":"bytes32"}],"stateMutability":"view"},{"type":"function","name":"UPGRADE_INTERFACE_VERSION","inputs":[],"outputs":[{"name":"","type":"string","internalType":"string"}],"stateMutability":"view"},{"type":"function","name":"URIDataFormatter","inputs":[{"name":"user","type":"address","internalType":"address"}],"outputs":[{"name":"","type":"string","internalType":"string"}],"stateMutability":"view"},{"type":"function","name":"getNodeAddresses","inputs":[],"outputs":[{"name":"","type":"address[]","internalType":"address[]"}],"stateMutability":"view"},{"type":"function","name":"getRoleAdmin","inputs":[{"name":"role","type":"bytes32","internalType":"bytes32"}],"outputs":[{"name":"","type":"bytes32","internalType":"bytes32"}],"stateMutability":"view"},{"type":"function","name":"grantRole","inputs":[{"name":"role","type":"bytes32","internalType":"bytes32"},{"name":"account","type":"address","internalType":"address"}],"outputs":[],"stateMutability":"nonpayable"},{"type":"function","name":"hasRole","inputs":[{"name":"role","type":"bytes32","internalType":"bytes32"},{"name":"account","type":"address","internalType":"address"}],"outputs":[{"name":"","type":"bool","internalType":"bool"}],"stateMutability":"view"},{"type":"function","name":"initialize","inputs":[{"name":"_nodeAddresses","type":"address[]","internalType":"address[]"},{"name":"_currentPosition","type":"uint8[]","internalType":"enum DataTypes.NodeRegion[]"},{"name":"nodePosition","type":"string[]","internalType":"string[]"},{"name":"latitude","type":"string[]","internalType":"string[]"},{"name":"longitude","type":"string[]","internalType":"string[]"}],"outputs":[],"stateMutability":"nonpayable"},{"type":"function","name":"isNodeRegistered","inputs":[{"name":"nodeAddress","type":"address","internalType":"address"}],"outputs":[{"name":"","type":"bool","internalType":"bool"}],"stateMutability":"view"},{"type":"function","name":"numberOfPresentNodes","inputs":[],"outputs":[{"name":"count","type":"uint256","internalType":"uint256"}],"stateMutability":"view"},{"type":"function","name":"owner","inputs":[],"outputs":[{"name":"","type":"address","internalType":"address"}],"stateMutability":"view"},{"type":"function","name":"proxiableUUID","inputs":[],"outputs":[{"name":"","type":"bytes32","internalType":"bytes32"}],"stateMutability":"view"},{"type":"function","name":"registerNewNode","inputs":[{"name":"_nodeAddress","type":"address","internalType":"address"},{"name":"_currentPosition","type":"uint8","internalType":"enum DataTypes.NodeRegion"},{"name":"nodePosition","type":"string","internalType":"string"},{"name":"latitude","type":"string","internalType":"string"},{"name":"longitude","type":"string","internalType":"string"}],"outputs":[],"stateMutability":"nonpayable"},{"type":"function","name":"renounceOwnership","inputs":[],"outputs":[],"stateMutability":"nonpayable"},{"type":"function","name":"renounceRole","inputs":[{"name":"role","type":"bytes32","internalType":"bytes32"},{"name":"callerConfirmation","type":"address","internalType":"address"}],"outputs":[],"stateMutability":"nonpayable"},{"type":"function","name":"retrieveAddressByIndex","inputs":[{"name":"index","type":"uint256","internalType":"uint256"}],"outputs":[{"name":"","type":"address","internalType":"address"}],"stateMutability":"view"},{"type":"function","name":"retrieveAllRegisteredNodeData","inputs":[],"outputs":[{"name":"","type":"tuple[]","internalType":"struct DataTypes.RegisteredNodes[]","components":[{"name":"nodeAddress","type":"address","internalType":"address"},{"name":"currentPosition","type":"uint8","internalType":"enum DataTypes.NodeRegion"},{"name":"nodePosition","type":"string","internalType":"string"},{"name":"latitude","type":"string","internalType":"string"},{"name":"longitude","type":"string","internalType":"string"}]}],"stateMutability":"view"},{"type":"function","name":"retrieveOwner","inputs":[],"outputs":[{"name":"contractOwner","type":"address","internalType":"address"}],"stateMutability":"view"},{"type":"function","name":"revokeRole","inputs":[{"name":"role","type":"bytes32","internalType":"bytes32"},{"name":"account","type":"address","internalType":"address"}],"outputs":[],"stateMutability":"nonpayable"},{"type":"function","name":"supportsInterface","inputs":[{"name":"interfaceId","type":"bytes4","internalType":"bytes4"}],"outputs":[{"name":"","type":"bool","internalType":"bool"}],"stateMutability":"view"},{"type":"function","name":"transferOwnership","inputs":[{"name":"newOwner","type":"address","internalType":"address"}],"outputs":[],"stateMutability":"nonpayable"},{"type":"function","name":"updateExpeditionaryForces","inputs":[{"name":"expeditionaryForces","type":"uint8","internalType":"enum DataTypes.NodeRegion"},{"name":"_nodeAddress","type":"address","internalType":"address"}],"outputs":[],"stateMutability":"nonpayable"},{"type":"function","name":"updateNodeData","inputs":[{"name":"_nodeAddress","type":"address","internalType":"address"},{"name":"newNodePosition","type":"string","internalType":"string"},{"name":"newLatitude","type":"string","internalType":"string"},{"name":"newLongitude","type":"string","internalType":"string"}],"outputs":[],"stateMutability":"nonpayable"},{"type":"function","name":"upgradeToAndCall","inputs":[{"name":"newImplementation","type":"address","internalType":"address"},{"name":"data","type":"bytes","internalType":"bytes"}],"outputs":[],"stateMutability":"payable"},{"type":"event","name":"Initialized","inputs":[{"name":"version","type":"uint64","indexed":false,"internalType":"uint64"}],"anonymous":false},{"type":"event","name":"NodeRegistered","inputs":[{"name":"nodeAddress","type":"address","indexed":true,"internalType":"address"},{"name":"currentPosition","type":"uint8","indexed":false,"internalType":"enum DataTypes.NodeRegion"}],"anonymous":false},{"type":"event","name":"OwnershipTransferred","inputs":[{"name":"previousOwner","type":"address","indexed":true,"internalType":"address"},{"name":"newOwner","type":"address","indexed":true,"internalType":"address"}],"anonymous":false},{"type":"event","name":"RoleAdminChanged","inputs":[{"name":"role","type":"bytes32","indexed":true,"internalType":"bytes32"},{"name":"previousAdminRole","type":"bytes32","indexed":true,"internalType":"bytes32"},{"name":"newAdminRole","type":"bytes32","indexed":true,"internalType":"bytes32"}],"anonymous":false},{"type":"event","name":"RoleGranted","inputs":[{"name":"role","type":"bytes32","indexed":true,"internalType":"bytes32"},{"name":"account","type":"address","indexed":true,"internalType":"address"},{"name":"sender","type":"address","indexed":true,"internalType":"address"}],"anonymous":false},{"type":"event","name":"RoleRevoked","inputs":[{"name":"role","type":"bytes32","indexed":true,"internalType":"bytes32"},{"name":"account","type":"address","indexed":true,"internalType":"address"},{"name":"sender","type":"address","indexed":true,"internalType":"address"}],"anonymous":false},{"type":"event","name":"Upgraded","inputs":[{"name":"implementation","type":"address","indexed":true,"internalType":"address"}],"anonymous":false},{"type":"error","name":"ARRAYS_LENGTH_IS_NOT_EQUAL","inputs":[]},{"type":"error","name":"AccessControlBadConfirmation","inputs":[]},{"type":"error","name":"AccessControlUnauthorizedAccount","inputs":[{"name":"account","type":"address","internalType":"address"},{"name":"neededRole","type":"bytes32","internalType":"bytes32"}]},{"type":"error","name":"AddressEmptyCode","inputs":[{"name":"target","type":"address","internalType":"address"}]},{"type":"error","name":"ERC1967InvalidImplementation","inputs":[{"name":"implementation","type":"address","internalType":"address"}]},{"type":"error","name":"ERC1967NonPayable","inputs":[]},{"type":"error","name":"FailedInnerCall","inputs":[]},{"type":"error","name":"InvalidInitialization","inputs":[]},{"type":"error","name":"NOT_ZERO_ADDRESS_ALLOWED","inputs":[]},{"type":"error","name":"NodeManager__CALLER_IS_NOT_AUTHORIZED","inputs":[]},{"type":"error","name":"NodeManager__NODE_ALREADY_EXIST","inputs":[]},{"type":"error","name":"NodeManager__NODE_NOT_FOUND","inputs":[]},{"type":"error","name":"NotInitializing","inputs":[]},{"type":"error","name":"OwnableInvalidOwner","inputs":[{"name":"owner","type":"address","internalType":"address"}]},{"type":"error","name":"OwnableUnauthorizedAccount","inputs":[{"name":"account","type":"address","internalType":"address"}]},{"type":"error","name":"UUPSUnauthorizedCallContext","inputs":[]},{"type":"error","name":"UUPSUnsupportedProxiableUUID","inputs":[{"name":"slot","type":"bytes32","internalType":"bytes32"}]}],"bytecode":{"object":"0x60a0604052306080523480156200001557600080fd5b506200002062000026565b620000da565b7ff0c57e16840df040f15088dc2f81fe391c3923bec73e23a9662efc9c229c6a00805468010000000000000000900460ff1615620000775760405163f92ee8a960e01b815260040160405180910390fd5b80546001600160401b0390811614620000d75780546001600160401b0319166001600160401b0390811782556040519081527fc7f505b2f371ae2175ee4913f4499e1f2633a7b5936321eed1cdaeb6115181d29060200160405180910390a15b50565b60805161278762000104600039600081816113f00152818161141901526115b101526127876000f3fe60806040526004361061014b5760003560e01c80638cc0ebb5116100b6578063d547741f1161006f578063d547741f146103da578063d608f450146103fa578063dc93fdca14610418578063ef5519e514610438578063f2fde38b14610458578063f8c5906f1461047857600080fd5b80638cc0ebb5146102d65780638da5cb5b146102f657806391d1485414610347578063990f3d5014610367578063a217fddf14610387578063ad3cb1cc1461039c57600080fd5b80632f2ff15d116101085780632f2ff15d1461023957806336568abe1461025957806342ad0fec146102795780634f1ef2861461029957806352d1902d146102ac578063715018a6146102c157600080fd5b806301ffc9a7146101505780631477e55b14610185578063168b2ff0146101a7578063248a9ca3146101c95780632d91f8f0146101f75780632e94982414610217575b600080fd5b34801561015c57600080fd5b5061017061016b366004611b33565b61048d565b60405190151581526020015b60405180910390f35b34801561019157600080fd5b5061019a6104c4565b60405161017c9190611be5565b3480156101b357600080fd5b506101c76101c2366004611cdc565b6107c1565b005b3480156101d557600080fd5b506101e96101e4366004611d0f565b610859565b60405190815260200161017c565b34801561020357600080fd5b506101c7610212366004611df3565b61087b565b34801561022357600080fd5b5061022c61096e565b60405161017c9190611e8b565b34801561024557600080fd5b506101c7610254366004611ed8565b6109d0565b34801561026557600080fd5b506101c7610274366004611ed8565b6109f2565b34801561028557600080fd5b506101c7610294366004611efb565b610a2a565b6101c76102a7366004611fa4565b610ad1565b3480156102b857600080fd5b506101e9610af0565b3480156102cd57600080fd5b506101c7610b0d565b3480156102e257600080fd5b506101706102f1366004612005565b610b21565b34801561030257600080fd5b507f9016d09d72d40fdae2fd8ceac6b6234c7706214fd39c1cd1e609a0528c199300546001600160a01b03165b6040516001600160a01b03909116815260200161017c565b34801561035357600080fd5b50610170610362366004611ed8565b610b56565b34801561037357600080fd5b506101c7610382366004612199565b610b8e565b34801561039357600080fd5b506101e9600081565b3480156103a857600080fd5b506103cd604051806040016040528060058152602001640352e302e360dc1b81525081565b60405161017c919061225d565b3480156103e657600080fd5b506101c76103f5366004611ed8565b610d10565b34801561040657600080fd5b506001546001600160a01b031661032f565b34801561042457600080fd5b5061032f610433366004611d0f565b610d2c565b34801561044457600080fd5b506103cd610453366004612005565b610d5c565b34801561046457600080fd5b506101c7610473366004612005565b6110c8565b34801561048457600080fd5b506002546101e9565b60006001600160e01b03198216637965db0b60e01b14806104be57506301ffc9a760e01b6001600160e01b03198316145b92915050565b6002546060906000906001600160401b038111156104e4576104e4611d28565b60405190808252806020026020018201604052801561054857816020015b6105356040805160a081019091526000808252602082019081526020016060815260200160608152602001606081525090565b8152602001906001900390816105025790505b50905060005b6002548110156107bb57600360006002838154811061056f5761056f612270565b60009182526020808320909101546001600160a01b039081168452838201949094526040928301909120825160a081019093528054938416835291929083019060ff600160a01b9091041660048111156105cb576105cb611b5d565b60048111156105dc576105dc611b5d565b81526020016001820180546105f090612286565b80601f016020809104026020016040519081016040528092919081815260200182805461061c90612286565b80156106695780601f1061063e57610100808354040283529160200191610669565b820191906000526020600020905b81548152906001019060200180831161064c57829003601f168201915b5050505050815260200160028201805461068290612286565b80601f01602080910402602001604051908101604052809291908181526020018280546106ae90612286565b80156106fb5780601f106106d0576101008083540402835291602001916106fb565b820191906000526020600020905b8154815290600101906020018083116106de57829003601f168201915b5050505050815260200160038201805461071490612286565b80601f016020809104026020016040519081016040528092919081815260200182805461074090612286565b801561078d5780601f106107625761010080835404028352916020019161078d565b820191906000526020600020905b81548152906001019060200180831161077057829003601f168201915b5050505050815250508282815181106107a8576107a8612270565b602090810291909101015260010161054e565b50919050565b6001546001600160a01b031633146107ec57604051637a2ca08760e01b815260040160405180910390fd5b806001600160a01b03811661081457604051635ee2e24760e01b815260040160405180910390fd5b6001600160a01b0382166000908152600360205260409020805484919060ff60a01b1916600160a01b83600481111561084f5761084f611b5d565b0217905550505050565b6000908152600080516020612732833981519152602052604090206001015490565b6001546001600160a01b031633146108a657604051637a2ca08760e01b815260040160405180910390fd5b836001600160a01b0381166108ce57604051635ee2e24760e01b815260040160405180910390fd5b6108d785610b21565b6108f45760405163e08866e760e01b815260040160405180910390fd5b6001600160a01b03851660009081526003602052604090206001016109198582612302565b506001600160a01b038516600090815260036020526040902060020161093f8482612302565b506001600160a01b0385166000908152600360208190526040909120016109668382612302565b505050505050565b606060028054806020026020016040519081016040528092919081815260200182805480156109c657602002820191906000526020600020905b81546001600160a01b031681526001909101906020018083116109a8575b5050505050905090565b6109d982610859565b6109e281611106565b6109ec8383611110565b50505050565b6001600160a01b0381163314610a1b5760405163334bd91960e11b815260040160405180910390fd5b610a2582826111b5565b505050565b6001546001600160a01b03163314610a5557604051637a2ca08760e01b815260040160405180910390fd5b610a5e85610b21565b15610a7c5760405163f5ce356360e01b815260040160405180910390fd5b610a898585858585611231565b846001600160a01b03167f1f63e087b186a95e77f84777db8290b8ac9093ba93592a3c2752d8b789e9c67685604051610ac291906123c1565b60405180910390a25050505050565b610ad96113e5565b610ae28261148a565b610aec82826114e9565b5050565b6000610afa6115a6565b506000805160206126d283398151915290565b610b156115ef565b610b1f600061164a565b565b6001600160a01b03811660009081526004602052604081205460ff161515600103610b4e57506001919050565b506000919050565b6000918252600080516020612732833981519152602090815260408084206001600160a01b0393909316845291905290205460ff1690565b7ff0c57e16840df040f15088dc2f81fe391c3923bec73e23a9662efc9c229c6a008054600160401b810460ff1615906001600160401b0316600081158015610bd35750825b90506000826001600160401b03166001148015610bef5750303b155b905081158015610bfd575080155b15610c1b5760405163f92ee8a960e01b815260040160405180910390fd5b845467ffffffffffffffff191660011785558315610c4557845460ff60401b1916600160401b1785555b88518a5114610c6757604051633785941760e11b815260040160405180910390fd5b600180546001600160a01b031916339081179091557f189ab7a9244df0848122154315af71fe140f3db0fe014031783b0946b8c9d2e3600055610ca9906116bb565b610cb68a8a8a8a8a6116cc565b610cbe61176a565b8315610d0457845460ff60401b19168555604051600181527fc7f505b2f371ae2175ee4913f4499e1f2633a7b5936321eed1cdaeb6115181d29060200160405180910390a15b50505050505050505050565b610d1982610859565b610d2281611106565b6109ec83836111b5565b600060028281548110610d4157610d41612270565b6000918252602090912001546001600160a01b031692915050565b6001600160a01b0381166000908152600360205260409020606090610d8083610b21565b610d9d5760405163e08866e760e01b815260040160405180910390fd5b80546001600160a01b0316610dea5760405162461bcd60e51b815260206004820152600e60248201526d139bd919481b9bdd08199bdd5b9960921b60448201526064015b60405180910390fd5b8054604051635e57966d60e01b81526001600160a01b03909116600482015260009073__$c1c00e273f14be79c18c4f9cb0aa87f229$__90635e57966d90602401600060405180830381865af4158015610e48573d6000803e3d6000fd5b505050506040513d6000823e601f3d908101601f19168201604052610e7091908101906123cf565b90506000826002018054610e8390612286565b80601f0160208091040260200160405190810160405280929190818152602001828054610eaf90612286565b8015610efc5780601f10610ed157610100808354040283529160200191610efc565b820191906000526020600020905b815481529060010190602001808311610edf57829003601f168201915b505050505090506000836003018054610f1490612286565b80601f0160208091040260200160405190810160405280929190818152602001828054610f4090612286565b8015610f8d5780601f10610f6257610100808354040283529160200191610f8d565b820191906000526020600020905b815481529060010190602001808311610f7057829003601f168201915b505050505090506000846001018054610fa590612286565b80601f0160208091040260200160405190810160405280929190818152602001828054610fd190612286565b801561101e5780601f10610ff35761010080835404028352916020019161101e565b820191906000526020600020905b81548152906001019060200180831161100157829003601f168201915b5050505050905060008482858560405160200161103e9493929190612458565b60408051601f19818403018152919052905080600061105c82611772565b905061109860408051808201909152601d81527f646174613a6170706c69636174696f6e2f6a736f6e3b6261736536342c000000602082015290565b816040516020016110aa92919061260b565b60405160208183030381529060405298505050505050505050919050565b6110d06115ef565b6001600160a01b0381166110fa57604051631e4fbdf760e01b815260006004820152602401610de1565b6111038161164a565b50565b61110381336118d1565b600060008051602061273283398151915261112b8484610b56565b6111ab576000848152602082815260408083206001600160a01b03871684529091529020805460ff191660011790556111613390565b6001600160a01b0316836001600160a01b0316857f2f8788117e7eff1d82e926ec794901d17c78024a50270940304540a733656f0d60405160405180910390a460019150506104be565b60009150506104be565b60006000805160206127328339815191526111d08484610b56565b156111ab576000848152602082815260408083206001600160a01b0387168085529252808320805460ff1916905551339287917ff6391f5c32d9c69d2a47ea670b442974b53935d1edc7fd64eb21e047a839171b9190a460019150506104be565b846001600160a01b03811661125957604051635ee2e24760e01b815260040160405180910390fd5b6040518060a00160405280876001600160a01b0316815260200186600481111561128557611285611b5d565b81526020808201879052604080830187905260609092018590526001600160a01b03808a16600090815260038352929092208351815493166001600160a01b0319841681178255918401519092909183916001600160a81b03191617600160a01b8360048111156112f8576112f8611b5d565b0217905550604082015160018201906113119082612302565b50606082015160028201906113269082612302565b506080820151600382019061133b9082612302565b50506002805460018082019092557f405787fa12a823e0f2b7631cc41b3ba8828b3321ca811111fa75cd3aa3bb5ace0180546001600160a01b0319166001600160a01b038a1690811790915560008181526004602052604090819020805460ff191690931790925590519091507f1f63e087b186a95e77f84777db8290b8ac9093ba93592a3c2752d8b789e9c676906113d59088906123c1565b60405180910390a2505050505050565b306001600160a01b037f000000000000000000000000000000000000000000000000000000000000000016148061146c57507f00000000000000000000000000000000000000000000000000000000000000006001600160a01b03166114606000805160206126d2833981519152546001600160a01b031690565b6001600160a01b031614155b15610b1f5760405163703e46dd60e11b815260040160405180910390fd5b60005461149681611106565b6001546001600160a01b031633146114c157604051637a2ca08760e01b815260040160405180910390fd5b6001600160a01b0382163b610aec57604051637a2ca08760e01b815260040160405180910390fd5b816001600160a01b03166352d1902d6040518163ffffffff1660e01b8152600401602060405180830381865afa925050508015611543575060408051601f3d908101601f191682019092526115409181019061263a565b60015b61156b57604051634c9c8ce360e01b81526001600160a01b0383166004820152602401610de1565b6000805160206126d2833981519152811461159c57604051632a87526960e21b815260048101829052602401610de1565b610a25838361190a565b306001600160a01b037f00000000000000000000000000000000000000000000000000000000000000001614610b1f5760405163703e46dd60e11b815260040160405180910390fd5b336116217f9016d09d72d40fdae2fd8ceac6b6234c7706214fd39c1cd1e609a0528c199300546001600160a01b031690565b6001600160a01b031614610b1f5760405163118cdaa760e01b8152336004820152602401610de1565b7f9016d09d72d40fdae2fd8ceac6b6234c7706214fd39c1cd1e609a0528c19930080546001600160a01b031981166001600160a01b03848116918217845560405192169182907f8be0079c531659141344cd1fd0a4f28419497f9722a3daafe3b4186f6b6457e090600090a3505050565b6116c3611960565b611103816119a9565b60005b8551811015610966576117628682815181106116ed576116ed612270565b602002602001015186838151811061170757611707612270565b602002602001015186848151811061172157611721612270565b602002602001015186858151811061173b5761173b612270565b602002602001015186868151811061175557611755612270565b6020026020010151611231565b6001016116cf565b610b1f611960565b6060815160000361179157505060408051602081019091526000815290565b60006040518060600160405280604081526020016126f260409139905060006003845160026117c09190612669565b6117ca919061267c565b6117d590600461269e565b6001600160401b038111156117ec576117ec611d28565b6040519080825280601f01601f191660200182016040528015611816576020820181803683370190505b50905060018201602082018586518701602081018051600082525b8284101561188c576003840193508351603f8160121c168701518653600186019550603f81600c1c168701518653600186019550603f8160061c168701518653600186019550603f8116870151865350600185019450611831565b90525050855160039006600181146118ab57600281146118be576118c6565b603d6001830353603d60028303536118c6565b603d60018303535b509195945050505050565b6118db8282610b56565b610aec5760405163e2517d3f60e01b81526001600160a01b038216600482015260248101839052604401610de1565b611913826119b1565b6040516001600160a01b038316907fbc7cd75a20ee27fd9adebab32041f755214dbc6bffa90cc0225b39da2e5c2d3b90600090a280511561195857610a258282611a16565b610aec611a8c565b7ff0c57e16840df040f15088dc2f81fe391c3923bec73e23a9662efc9c229c6a0054600160401b900460ff16610b1f57604051631afcd79f60e31b815260040160405180910390fd5b6110d0611960565b806001600160a01b03163b6000036119e757604051634c9c8ce360e01b81526001600160a01b0382166004820152602401610de1565b6000805160206126d283398151915280546001600160a01b0319166001600160a01b0392909216919091179055565b6060600080846001600160a01b031684604051611a3391906126b5565b600060405180830381855af49150503d8060008114611a6e576040519150601f19603f3d011682016040523d82523d6000602084013e611a73565b606091505b5091509150611a83858383611aab565b95945050505050565b3415610b1f5760405163b398979f60e01b815260040160405180910390fd5b606082611ac057611abb82611b0a565b611b03565b8151158015611ad757506001600160a01b0384163b155b15611b0057604051639996b31560e01b81526001600160a01b0385166004820152602401610de1565b50805b9392505050565b805115611b1a5780518082602001fd5b604051630a12f52160e11b815260040160405180910390fd5b600060208284031215611b4557600080fd5b81356001600160e01b031981168114611b0357600080fd5b634e487b7160e01b600052602160045260246000fd5b60058110611b9157634e487b7160e01b600052602160045260246000fd5b9052565b60005b83811015611bb0578181015183820152602001611b98565b50506000910152565b60008151808452611bd1816020860160208601611b95565b601f01601f19169290920160200192915050565b600060208083018184528085518083526040925060408601915060408160051b87010184880160005b83811015611ca357888303603f19018552815180516001600160a01b031684528781015160a090611c418a870182611b73565b50878201518189870152611c5782870182611bb9565b91505060608083015186830382880152611c718382611bb9565b9250505060808083015192508582038187015250611c8f8183611bb9565b968901969450505090860190600101611c0e565b509098975050505050505050565b803560058110611cc057600080fd5b919050565b80356001600160a01b0381168114611cc057600080fd5b60008060408385031215611cef57600080fd5b611cf883611cb1565b9150611d0660208401611cc5565b90509250929050565b600060208284031215611d2157600080fd5b5035919050565b634e487b7160e01b600052604160045260246000fd5b604051601f8201601f191681016001600160401b0381118282101715611d6657611d66611d28565b604052919050565b60006001600160401b03821115611d8757611d87611d28565b50601f01601f191660200190565b6000611da8611da384611d6e565b611d3e565b9050828152838383011115611dbc57600080fd5b828260208301376000602084830101529392505050565b600082601f830112611de457600080fd5b611b0383833560208501611d95565b60008060008060808587031215611e0957600080fd5b611e1285611cc5565b935060208501356001600160401b0380821115611e2e57600080fd5b611e3a88838901611dd3565b94506040870135915080821115611e5057600080fd5b611e5c88838901611dd3565b93506060870135915080821115611e7257600080fd5b50611e7f87828801611dd3565b91505092959194509250565b6020808252825182820181905260009190848201906040850190845b81811015611ecc5783516001600160a01b031683529284019291840191600101611ea7565b50909695505050505050565b60008060408385031215611eeb57600080fd5b82359150611d0660208401611cc5565b600080600080600060a08688031215611f1357600080fd5b611f1c86611cc5565b9450611f2a60208701611cb1565b935060408601356001600160401b0380821115611f4657600080fd5b611f5289838a01611dd3565b94506060880135915080821115611f6857600080fd5b611f7489838a01611dd3565b93506080880135915080821115611f8a57600080fd5b50611f9788828901611dd3565b9150509295509295909350565b60008060408385031215611fb757600080fd5b611fc083611cc5565b915060208301356001600160401b03811115611fdb57600080fd5b8301601f81018513611fec57600080fd5b611ffb85823560208401611d95565b9150509250929050565b60006020828403121561201757600080fd5b611b0382611cc5565b60006001600160401b0382111561203957612039611d28565b5060051b60200190565b600082601f83011261205457600080fd5b81356020612064611da383612020565b8083825260208201915060208460051b87010193508684111561208657600080fd5b602086015b848110156120a95761209c81611cc5565b835291830191830161208b565b509695505050505050565b600082601f8301126120c557600080fd5b813560206120d5611da383612020565b8083825260208201915060208460051b8701019350868411156120f757600080fd5b602086015b848110156120a95761210d81611cb1565b83529183019183016120fc565b600082601f83011261212b57600080fd5b8135602061213b611da383612020565b82815260059290921b8401810191818101908684111561215a57600080fd5b8286015b848110156120a95780356001600160401b0381111561217d5760008081fd5b61218b8986838b0101611dd3565b84525091830191830161215e565b600080600080600060a086880312156121b157600080fd5b85356001600160401b03808211156121c857600080fd5b6121d489838a01612043565b965060208801359150808211156121ea57600080fd5b6121f689838a016120b4565b9550604088013591508082111561220c57600080fd5b61221889838a0161211a565b9450606088013591508082111561222e57600080fd5b61223a89838a0161211a565b9350608088013591508082111561225057600080fd5b50611f978882890161211a565b602081526000611b036020830184611bb9565b634e487b7160e01b600052603260045260246000fd5b600181811c9082168061229a57607f821691505b6020821081036107bb57634e487b7160e01b600052602260045260246000fd5b601f821115610a25576000816000526020600020601f850160051c810160208610156122e35750805b601f850160051c820191505b81811015610966578281556001016122ef565b81516001600160401b0381111561231b5761231b611d28565b61232f816123298454612286565b846122ba565b602080601f831160018114612364576000841561234c5750858301515b600019600386901b1c1916600185901b178555610966565b600085815260208120601f198616915b8281101561239357888601518255948401946001909101908401612374565b50858210156123b15787850151600019600388901b60f8161c191681555b5050505050600190811b01905550565b602081016104be8284611b73565b6000602082840312156123e157600080fd5b81516001600160401b038111156123f757600080fd5b8201601f8101841361240857600080fd5b8051612416611da382611d6e565b81815285602083850101111561242b57600080fd5b611a83826020830160208601611b95565b6000815161244e818560208601611b95565b9290920192915050565b607b60f81b815271113bb0b63632ba2fb0b2323932b9b9911d1160711b60018201528451600090612490816013850160208a01611b95565b61088b60f21b60139184019182018190526b113837b9b4ba34b7b7111d1160a11b601583015286516124c9816021850160208b01611b95565b60219201918201526722756e6974223a7b60c01b60238201526126006125f3806125d16125b36125356125a66125a061258761257961257361255b61254387602b8f017f226e616d65223a22427261766f20436f6d6d616e646572220000000000000000815260180190565b611f4b60f21b815260020190565b6b226c6f636174696f6e223a7b60a01b8152600c0190565b6b113630ba34ba3ab232911d1160a11b8152600c0190565b8f61243c565b61088b60f21b815260020190565b6c113637b733b4ba3ab232911d1160991b8152600d0190565b8b61243c565b601160f91b815260010190565b7122636f6d6d756e69636174696f6e73223a7b60701b815260120190565b751132b731b93cb83a34b7b7111d1120a2a996991a9b1160511b815260160190565b607d60f81b815260010190565b979650505050505050565b6000835161261d818460208801611b95565b835190830190612631818360208801611b95565b01949350505050565b60006020828403121561264c57600080fd5b5051919050565b634e487b7160e01b600052601160045260246000fd5b808201808211156104be576104be612653565b60008261269957634e487b7160e01b600052601260045260246000fd5b500490565b80820281158282048414176104be576104be612653565b600082516126c7818460208701611b95565b919091019291505056fe360894a13ba1a3210667c828492db98dca3e2076cc3735a920a3ca505d382bbc4142434445464748494a4b4c4d4e4f505152535455565758595a6162636465666768696a6b6c6d6e6f707172737475767778797a303132333435363738392b2f02dd7bc7dec4dceedda775e58dd541e08a116c6c53815c0bd028192f7b626800a2646970667358221220d52629a2bd5a1bfe60c0f38da9aa8d5f1a1b44496d1cee1fc1613b177750f1df64736f6c63430008180033","linkReferences":{"contracts/ethereum/Helper/Utils.sol":{"Utils":[{"start":3858,"length":20}]}}},"methodIdentifiers":{"DEFAULT_ADMIN_ROLE()":"a217fddf","UPGRADE_INTERFACE_VERSION()":"ad3cb1cc","URIDataFormatter(address)":"ef5519e5","getNodeAddresses()":"2e949824","getRoleAdmin(bytes32)":"248a9ca3","grantRole(bytes32,address)":"2f2ff15d","hasRole(bytes32,address)":"91d14854","initialize(address[],uint8[],string[],string[],string[])":"990f3d50","isNodeRegistered(address)":"8cc0ebb5","numberOfPresentNodes()":"f8c5906f","owner()":"8da5cb5b","proxiableUUID()":"52d1902d","registerNewNode(address,uint8,string,string,string)":"42ad0fec","renounceOwnership()":"715018a6","renounceRole(bytes32,address)":"36568abe","retrieveAddressByIndex(uint256)":"dc93fdca","retrieveAllRegisteredNodeData()":"1477e55b","retrieveOwner()":"d608f450","revokeRole(bytes32,address)":"d547741f","supportsInterface(bytes4)":"01ffc9a7","transferOwnership(address)":"f2fde38b","updateExpeditionaryForces(uint8,address)":"168b2ff0","updateNodeData(address,string,string,string)":"2d91f8f0","upgradeToAndCall(address,bytes)":"4f1ef286"},"id":4}